{
  "contractName": "MAI",
  "abi": [
    {
      "inputs": [],
      "stateMutability": "payable",
      "type": "constructor",
      "payable": true
    },
    {
      "anonymous": false,
      "inputs": [
        {
          "indexed": false,
          "internalType": "address",
          "name": "asset",
          "type": "address"
        },
        {
          "indexed": false,
          "internalType": "address",
          "name": "liquidityProvider",
          "type": "address"
        },
        {
          "indexed": false,
          "internalType": "uint256",
          "name": "amountMAI",
          "type": "uint256"
        },
        {
          "indexed": false,
          "internalType": "uint256",
          "name": "amountAsset",
          "type": "uint256"
        },
        {
          "indexed": false,
          "internalType": "uint256",
          "name": "unitsIssued",
          "type": "uint256"
        }
      ],
      "name": "AddLiquidity",
      "type": "event"
    },
    {
      "anonymous": false,
      "inputs": [
        {
          "indexed": false,
          "internalType": "address",
          "name": "assetAnchor",
          "type": "address"
        },
        {
          "indexed": false,
          "internalType": "uint256",
          "name": "delta",
          "type": "uint256"
        },
        {
          "indexed": false,
          "internalType": "uint256",
          "name": "assetValue",
          "type": "uint256"
        },
        {
          "indexed": false,
          "internalType": "address",
          "name": "recipient",
          "type": "address"
        }
      ],
      "name": "AnchorRemoved",
      "type": "event"
    },
    {
      "anonymous": false,
      "inputs": [
        {
          "indexed": true,
          "internalType": "address",
          "name": "owner",
          "type": "address"
        },
        {
          "indexed": true,
          "internalType": "address",
          "name": "spender",
          "type": "address"
        },
        {
          "indexed": false,
          "internalType": "uint256",
          "name": "amount",
          "type": "uint256"
        }
      ],
      "name": "Approval",
      "type": "event"
    },
    {
      "anonymous": false,
      "inputs": [
        {
          "indexed": false,
          "internalType": "uint256",
          "name": "CDP",
          "type": "uint256"
        },
        {
          "indexed": false,
          "internalType": "uint256",
          "name": "time",
          "type": "uint256"
        },
        {
          "indexed": false,
          "internalType": "address",
          "name": "owner",
          "type": "address"
        },
        {
          "indexed": false,
          "internalType": "uint256",
          "name": "debtPaid",
          "type": "uint256"
        },
        {
          "indexed": false,
          "internalType": "uint256",
          "name": "etherReturned",
          "type": "uint256"
        }
      ],
      "name": "CloseCDP",
      "type": "event"
    },
    {
      "anonymous": false,
      "inputs": [
        {
          "indexed": false,
          "internalType": "uint256",
          "name": "CDP",
          "type": "uint256"
        },
        {
          "indexed": false,
          "internalType": "uint256",
          "name": "time",
          "type": "uint256"
        },
        {
          "indexed": false,
          "internalType": "address",
          "name": "liquidator",
          "type": "address"
        },
        {
          "indexed": false,
          "internalType": "uint256",
          "name": "liquidation",
          "type": "uint256"
        },
        {
          "indexed": false,
          "internalType": "uint256",
          "name": "etherSold",
          "type": "uint256"
        },
        {
          "indexed": false,
          "internalType": "uint256",
          "name": "maiBought",
          "type": "uint256"
        },
        {
          "indexed": false,
          "internalType": "uint256",
          "name": "debtDeleted",
          "type": "uint256"
        },
        {
          "indexed": false,
          "internalType": "uint256",
          "name": "feeClaimed",
          "type": "uint256"
        }
      ],
      "name": "LiquidateCDP",
      "type": "event"
    },
    {
      "anonymous": false,
      "inputs": [
        {
          "indexed": false,
          "internalType": "uint256",
          "name": "CDP",
          "type": "uint256"
        },
        {
          "indexed": false,
          "internalType": "uint256",
          "name": "time",
          "type": "uint256"
        },
        {
          "indexed": false,
          "internalType": "address",
          "name": "owner",
          "type": "address"
        },
        {
          "indexed": false,
          "internalType": "uint256",
          "name": "debtIssued",
          "type": "uint256"
        },
        {
          "indexed": false,
          "internalType": "uint256",
          "name": "collateralHeld",
          "type": "uint256"
        },
        {
          "indexed": false,
          "internalType": "uint256",
          "name": "collateralisation",
          "type": "uint256"
        }
      ],
      "name": "NewCDP",
      "type": "event"
    },
    {
      "anonymous": false,
      "inputs": [
        {
          "indexed": false,
          "internalType": "address",
          "name": "asset",
          "type": "address"
        },
        {
          "indexed": false,
          "internalType": "address",
          "name": "liquidityProvider",
          "type": "address"
        },
        {
          "indexed": false,
          "internalType": "uint256",
          "name": "amountMAI",
          "type": "uint256"
        },
        {
          "indexed": false,
          "internalType": "uint256",
          "name": "amountAsset",
          "type": "uint256"
        },
        {
          "indexed": false,
          "internalType": "uint256",
          "name": "unitsClaimed",
          "type": "uint256"
        }
      ],
      "name": "RemoveLiquidity",
      "type": "event"
    },
    {
      "anonymous": false,
      "inputs": [
        {
          "indexed": false,
          "internalType": "address",
          "name": "assetFrom",
          "type": "address"
        },
        {
          "indexed": false,
          "internalType": "address",
          "name": "assetTo",
          "type": "address"
        },
        {
          "indexed": false,
          "internalType": "uint256",
          "name": "inputAmount",
          "type": "uint256"
        },
        {
          "indexed": false,
          "internalType": "uint256",
          "name": "maiAmount",
          "type": "uint256"
        },
        {
          "indexed": false,
          "internalType": "uint256",
          "name": "outPutAmount",
          "type": "uint256"
        },
        {
          "indexed": false,
          "internalType": "address",
          "name": "recipient",
          "type": "address"
        }
      ],
      "name": "Swapped",
      "type": "event"
    },
    {
      "anonymous": false,
      "inputs": [
        {
          "indexed": true,
          "internalType": "address",
          "name": "from",
          "type": "address"
        },
        {
          "indexed": true,
          "internalType": "address",
          "name": "to",
          "type": "address"
        },
        {
          "indexed": false,
          "internalType": "uint256",
          "name": "amount",
          "type": "uint256"
        }
      ],
      "name": "Transfer",
      "type": "event"
    },
    {
      "anonymous": false,
      "inputs": [
        {
          "indexed": false,
          "internalType": "uint256",
          "name": "CDP",
          "type": "uint256"
        },
        {
          "indexed": false,
          "internalType": "uint256",
          "name": "time",
          "type": "uint256"
        },
        {
          "indexed": false,
          "internalType": "address",
          "name": "owner",
          "type": "address"
        },
        {
          "indexed": false,
          "internalType": "uint256",
          "name": "debtAdded",
          "type": "uint256"
        },
        {
          "indexed": false,
          "internalType": "uint256",
          "name": "collateralAdded",
          "type": "uint256"
        },
        {
          "indexed": false,
          "internalType": "uint256",
          "name": "collateralisation",
          "type": "uint256"
        }
      ],
      "name": "UpdateCDP",
      "type": "event"
    },
    {
      "inputs": [],
      "name": "_1",
      "outputs": [
        {
          "internalType": "uint256",
          "name": "",
          "type": "uint256"
        }
      ],
      "stateMutability": "view",
      "type": "function",
      "constant": true
    },
    {
      "inputs": [
        {
          "internalType": "address",
          "name": "",
          "type": "address"
        },
        {
          "internalType": "address",
          "name": "",
          "type": "address"
        }
      ],
      "name": "allowance",
      "outputs": [
        {
          "internalType": "uint256",
          "name": "",
          "type": "uint256"
        }
      ],
      "stateMutability": "view",
      "type": "function",
      "constant": true
    },
    {
      "inputs": [
        {
          "internalType": "uint256",
          "name": "",
          "type": "uint256"
        }
      ],
      "name": "arrayAnchor",
      "outputs": [
        {
          "internalType": "address",
          "name": "",
          "type": "address"
        }
      ],
      "stateMutability": "view",
      "type": "function",
      "constant": true
    },
    {
      "inputs": [
        {
          "internalType": "address",
          "name": "",
          "type": "address"
        }
      ],
      "name": "balanceOf",
      "outputs": [
        {
          "internalType": "uint256",
          "name": "",
          "type": "uint256"
        }
      ],
      "stateMutability": "view",
      "type": "function",
      "constant": true
    },
    {
      "inputs": [],
      "name": "countOfCDPs",
      "outputs": [
        {
          "internalType": "uint256",
          "name": "",
          "type": "uint256"
        }
      ],
      "stateMutability": "view",
      "type": "function",
      "constant": true
    },
    {
      "inputs": [],
      "name": "decimals",
      "outputs": [
        {
          "internalType": "uint256",
          "name": "",
          "type": "uint256"
        }
      ],
      "stateMutability": "view",
      "type": "function",
      "constant": true
    },
    {
      "inputs": [],
      "name": "defaultCollateralisation",
      "outputs": [
        {
          "internalType": "uint256",
          "name": "",
          "type": "uint256"
        }
      ],
      "stateMutability": "view",
      "type": "function",
      "constant": true
    },
    {
      "inputs": [],
      "name": "etherPrice",
      "outputs": [
        {
          "internalType": "uint256",
          "name": "",
          "type": "uint256"
        }
      ],
      "stateMutability": "view",
      "type": "function",
      "constant": true
    },
    {
      "inputs": [
        {
          "internalType": "uint256",
          "name": "",
          "type": "uint256"
        }
      ],
      "name": "exchanges",
      "outputs": [
        {
          "internalType": "address",
          "name": "",
          "type": "address"
        }
      ],
      "stateMutability": "view",
      "type": "function",
      "constant": true
    },
    {
      "inputs": [],
      "name": "incentiveFactor",
      "outputs": [
        {
          "internalType": "uint256",
          "name": "",
          "type": "uint256"
        }
      ],
      "stateMutability": "view",
      "type": "function",
      "constant": true
    },
    {
      "inputs": [
        {
          "internalType": "address",
          "name": "",
          "type": "address"
        }
      ],
      "name": "mapAddress_MemberData",
      "outputs": [
        {
          "internalType": "uint256",
          "name": "CDP",
          "type": "uint256"
        }
      ],
      "stateMutability": "view",
      "type": "function",
      "constant": true
    },
    {
      "inputs": [
        {
          "internalType": "address",
          "name": "",
          "type": "address"
        }
      ],
      "name": "mapAsset_ExchangeData",
      "outputs": [
        {
          "internalType": "bool",
          "name": "listed",
          "type": "bool"
        },
        {
          "internalType": "bool",
          "name": "isAnchor",
          "type": "bool"
        },
        {
          "internalType": "uint256",
          "name": "balanceMAI",
          "type": "uint256"
        },
        {
          "internalType": "uint256",
          "name": "balanceAsset",
          "type": "uint256"
        },
        {
          "internalType": "uint256",
          "name": "poolUnits",
          "type": "uint256"
        }
      ],
      "stateMutability": "view",
      "type": "function",
      "constant": true
    },
    {
      "inputs": [
        {
          "internalType": "uint256",
          "name": "",
          "type": "uint256"
        }
      ],
      "name": "mapCDP_Data",
      "outputs": [
        {
          "internalType": "uint256",
          "name": "collateral",
          "type": "uint256"
        },
        {
          "internalType": "uint256",
          "name": "debt",
          "type": "uint256"
        },
        {
          "internalType": "address payable",
          "name": "owner",
          "type": "address"
        }
      ],
      "stateMutability": "view",
      "type": "function",
      "constant": true
    },
    {
      "inputs": [],
      "name": "medianMAIValue",
      "outputs": [
        {
          "internalType": "uint256",
          "name": "",
          "type": "uint256"
        }
      ],
      "stateMutability": "view",
      "type": "function",
      "constant": true
    },
    {
      "inputs": [
        {
          "internalType": "uint256",
          "name": "",
          "type": "uint256"
        }
      ],
      "name": "members",
      "outputs": [
        {
          "internalType": "address",
          "name": "",
          "type": "address"
        }
      ],
      "stateMutability": "view",
      "type": "function",
      "constant": true
    },
    {
      "inputs": [],
      "name": "minCollaterisation",
      "outputs": [
        {
          "internalType": "uint256",
          "name": "",
          "type": "uint256"
        }
      ],
      "stateMutability": "view",
      "type": "function",
      "constant": true
    },
    {
      "inputs": [],
      "name": "mintedMAI",
      "outputs": [
        {
          "internalType": "uint256",
          "name": "",
          "type": "uint256"
        }
      ],
      "stateMutability": "view",
      "type": "function",
      "constant": true
    },
    {
      "inputs": [],
      "name": "name",
      "outputs": [
        {
          "internalType": "string",
          "name": "",
          "type": "string"
        }
      ],
      "stateMutability": "view",
      "type": "function",
      "constant": true
    },
    {
      "inputs": [],
      "name": "pooledMAI",
      "outputs": [
        {
          "internalType": "uint256",
          "name": "",
          "type": "uint256"
        }
      ],
      "stateMutability": "view",
      "type": "function",
      "constant": true
    },
    {
      "inputs": [],
      "name": "symbol",
      "outputs": [
        {
          "internalType": "string",
          "name": "",
          "type": "string"
        }
      ],
      "stateMutability": "view",
      "type": "function",
      "constant": true
    },
    {
      "inputs": [],
      "name": "totalSupply",
      "outputs": [
        {
          "internalType": "uint256",
          "name": "",
          "type": "uint256"
        }
      ],
      "stateMutability": "view",
      "type": "function",
      "constant": true
    },
    {
      "stateMutability": "payable",
      "type": "receive",
      "payable": true
    },
    {
      "inputs": [
        {
          "internalType": "address",
          "name": "asset",
          "type": "address"
        },
        {
          "internalType": "address",
          "name": "staker",
          "type": "address"
        }
      ],
      "name": "calcStakerUnits",
      "outputs": [
        {
          "internalType": "uint256",
          "name": "stakerUnits",
          "type": "uint256"
        }
      ],
      "stateMutability": "view",
      "type": "function",
      "constant": true
    },
    {
      "inputs": [
        {
          "internalType": "address",
          "name": "asset",
          "type": "address"
        },
        {
          "internalType": "uint256",
          "name": "index",
          "type": "uint256"
        }
      ],
      "name": "calcStakerAddress",
      "outputs": [
        {
          "internalType": "address",
          "name": "staker",
          "type": "address"
        }
      ],
      "stateMutability": "view",
      "type": "function",
      "constant": true
    },
    {
      "inputs": [
        {
          "internalType": "address",
          "name": "asset",
          "type": "address"
        }
      ],
      "name": "calcStakerCount",
      "outputs": [
        {
          "internalType": "uint256",
          "name": "",
          "type": "uint256"
        }
      ],
      "stateMutability": "view",
      "type": "function",
      "constant": true
    },
    {
      "inputs": [],
      "name": "getExhangesCount",
      "outputs": [
        {
          "internalType": "uint256",
          "name": "",
          "type": "uint256"
        }
      ],
      "stateMutability": "view",
      "type": "function",
      "constant": true
    },
    {
      "inputs": [],
      "name": "getAnchorsCount",
      "outputs": [
        {
          "internalType": "uint256",
          "name": "",
          "type": "uint256"
        }
      ],
      "stateMutability": "view",
      "type": "function",
      "constant": true
    },
    {
      "inputs": [],
      "name": "getMembersCount",
      "outputs": [
        {
          "internalType": "uint256",
          "name": "",
          "type": "uint256"
        }
      ],
      "stateMutability": "view",
      "type": "function",
      "constant": true
    },
    {
      "inputs": [
        {
          "internalType": "address",
          "name": "member",
          "type": "address"
        }
      ],
      "name": "getMemberExchangeCount",
      "outputs": [
        {
          "internalType": "uint256",
          "name": "",
          "type": "uint256"
        }
      ],
      "stateMutability": "view",
      "type": "function",
      "constant": true
    },
    {
      "inputs": [
        {
          "internalType": "address",
          "name": "member",
          "type": "address"
        },
        {
          "internalType": "uint256",
          "name": "index",
          "type": "uint256"
        }
      ],
      "name": "getStakerExchanges",
      "outputs": [
        {
          "internalType": "address",
          "name": "exchange",
          "type": "address"
        }
      ],
      "stateMutability": "view",
      "type": "function",
      "constant": true
    },
    {
      "inputs": [
        {
          "internalType": "address",
          "name": "to",
          "type": "address"
        },
        {
          "internalType": "uint256",
          "name": "amount",
          "type": "uint256"
        }
      ],
      "name": "transfer",
      "outputs": [
        {
          "internalType": "bool",
          "name": "success",
          "type": "bool"
        }
      ],
      "stateMutability": "nonpayable",
      "type": "function"
    },
    {
      "inputs": [
        {
          "internalType": "address",
          "name": "spender",
          "type": "address"
        },
        {
          "internalType": "uint256",
          "name": "amount",
          "type": "uint256"
        }
      ],
      "name": "approve",
      "outputs": [
        {
          "internalType": "bool",
          "name": "success",
          "type": "bool"
        }
      ],
      "stateMutability": "nonpayable",
      "type": "function"
    },
    {
      "inputs": [
        {
          "internalType": "address",
          "name": "from",
          "type": "address"
        },
        {
          "internalType": "address",
          "name": "to",
          "type": "address"
        },
        {
          "internalType": "uint256",
          "name": "amount",
          "type": "uint256"
        }
      ],
      "name": "transferFrom",
      "outputs": [
        {
          "internalType": "bool",
          "name": "success",
          "type": "bool"
        }
      ],
      "stateMutability": "nonpayable",
      "type": "function"
    },
    {
      "inputs": [
        {
          "internalType": "address",
          "name": "asset",
          "type": "address"
        },
        {
          "internalType": "uint256",
          "name": "amountAsset",
          "type": "uint256"
        },
        {
          "internalType": "uint256",
          "name": "amountMAI",
          "type": "uint256"
        }
      ],
      "name": "addExchange",
      "outputs": [
        {
          "internalType": "bool",
          "name": "success",
          "type": "bool"
        }
      ],
      "stateMutability": "payable",
      "type": "function",
      "payable": true
    },
    {
      "inputs": [
        {
          "internalType": "uint256",
          "name": "collateralisation",
          "type": "uint256"
        }
      ],
      "name": "openCDP",
      "outputs": [
        {
          "internalType": "bool",
          "name": "success",
          "type": "bool"
        }
      ],
      "stateMutability": "payable",
      "type": "function",
      "payable": true
    },
    {
      "inputs": [],
      "name": "addCollateralToCDP",
      "outputs": [
        {
          "internalType": "bool",
          "name": "success",
          "type": "bool"
        }
      ],
      "stateMutability": "payable",
      "type": "function",
      "payable": true
    },
    {
      "inputs": [
        {
          "internalType": "uint256",
          "name": "collateralisation",
          "type": "uint256"
        }
      ],
      "name": "remintMAIFromCDP",
      "outputs": [
        {
          "internalType": "bool",
          "name": "success",
          "type": "bool"
        }
      ],
      "stateMutability": "payable",
      "type": "function",
      "payable": true
    },
    {
      "inputs": [
        {
          "internalType": "uint256",
          "name": "_liquidation",
          "type": "uint256"
        }
      ],
      "name": "closeCDP",
      "outputs": [
        {
          "internalType": "bool",
          "name": "success",
          "type": "bool"
        }
      ],
      "stateMutability": "nonpayable",
      "type": "function"
    },
    {
      "inputs": [
        {
          "internalType": "uint256",
          "name": "CDP",
          "type": "uint256"
        },
        {
          "internalType": "uint256",
          "name": "liquidation",
          "type": "uint256"
        }
      ],
      "name": "liquidateCDP",
      "outputs": [
        {
          "internalType": "bool",
          "name": "success",
          "type": "bool"
        }
      ],
      "stateMutability": "nonpayable",
      "type": "function"
    },
    {
      "inputs": [
        {
          "internalType": "uint256",
          "name": "amountMAI",
          "type": "uint256"
        }
      ],
      "name": "addLiquidityToEtherPool",
      "outputs": [
        {
          "internalType": "bool",
          "name": "success",
          "type": "bool"
        }
      ],
      "stateMutability": "payable",
      "type": "function",
      "payable": true
    },
    {
      "inputs": [
        {
          "internalType": "address",
          "name": "asset",
          "type": "address"
        },
        {
          "internalType": "uint256",
          "name": "amountAsset",
          "type": "uint256"
        },
        {
          "internalType": "uint256",
          "name": "amountMAI",
          "type": "uint256"
        }
      ],
      "name": "addLiquidityToAssetPool",
      "outputs": [
        {
          "internalType": "bool",
          "name": "success",
          "type": "bool"
        }
      ],
      "stateMutability": "nonpayable",
      "type": "function"
    },
    {
      "inputs": [
        {
          "internalType": "address",
          "name": "asset",
          "type": "address"
        },
        {
          "internalType": "uint256",
          "name": "bp",
          "type": "uint256"
        }
      ],
      "name": "removeLiquidityPool",
      "outputs": [
        {
          "internalType": "bool",
          "name": "success",
          "type": "bool"
        }
      ],
      "stateMutability": "nonpayable",
      "type": "function"
    },
    {
      "inputs": [
        {
          "internalType": "address",
          "name": "assetFrom",
          "type": "address"
        },
        {
          "internalType": "address",
          "name": "assetTo",
          "type": "address"
        },
        {
          "internalType": "uint256",
          "name": "inputAmount",
          "type": "uint256"
        }
      ],
      "name": "swapTokenToToken",
      "outputs": [
        {
          "internalType": "bool",
          "name": "success",
          "type": "bool"
        }
      ],
      "stateMutability": "payable",
      "type": "function",
      "payable": true
    },
    {
      "inputs": [
        {
          "internalType": "address",
          "name": "asset",
          "type": "address"
        },
        {
          "internalType": "uint256",
          "name": "amountAsset",
          "type": "uint256"
        },
        {
          "internalType": "uint256",
          "name": "amountMAI",
          "type": "uint256"
        }
      ],
      "name": "addAnchor",
      "outputs": [
        {
          "internalType": "bool",
          "name": "success",
          "type": "bool"
        }
      ],
      "stateMutability": "payable",
      "type": "function",
      "payable": true
    },
    {
      "inputs": [],
      "name": "updatePrice",
      "outputs": [],
      "stateMutability": "nonpayable",
      "type": "function"
    },
    {
      "inputs": [
        {
          "internalType": "address",
          "name": "asset",
          "type": "address"
        }
      ],
      "name": "calcValueInMAI",
      "outputs": [
        {
          "internalType": "uint256",
          "name": "price",
          "type": "uint256"
        }
      ],
      "stateMutability": "view",
      "type": "function",
      "constant": true
    },
    {
      "inputs": [
        {
          "internalType": "address",
          "name": "asset",
          "type": "address"
        }
      ],
      "name": "calcValueInAsset",
      "outputs": [
        {
          "internalType": "uint256",
          "name": "price",
          "type": "uint256"
        }
      ],
      "stateMutability": "view",
      "type": "function",
      "constant": true
    },
    {
      "inputs": [
        {
          "internalType": "uint256",
          "name": "amount",
          "type": "uint256"
        }
      ],
      "name": "calcEtherPriceInUSD",
      "outputs": [
        {
          "internalType": "uint256",
          "name": "amountBought",
          "type": "uint256"
        }
      ],
      "stateMutability": "view",
      "type": "function",
      "constant": true
    },
    {
      "inputs": [
        {
          "internalType": "uint256",
          "name": "amount",
          "type": "uint256"
        }
      ],
      "name": "calcEtherPPinMAI",
      "outputs": [
        {
          "internalType": "uint256",
          "name": "amountBought",
          "type": "uint256"
        }
      ],
      "stateMutability": "view",
      "type": "function",
      "constant": true
    },
    {
      "inputs": [
        {
          "internalType": "uint256",
          "name": "CDP",
          "type": "uint256"
        }
      ],
      "name": "checkLiquidationPoint",
      "outputs": [
        {
          "internalType": "bool",
          "name": "canLiquidate",
          "type": "bool"
        }
      ],
      "stateMutability": "view",
      "type": "function",
      "constant": true
    },
    {
      "inputs": [
        {
          "internalType": "uint256",
          "name": "x",
          "type": "uint256"
        },
        {
          "internalType": "uint256",
          "name": "X",
          "type": "uint256"
        },
        {
          "internalType": "uint256",
          "name": "Y",
          "type": "uint256"
        }
      ],
      "name": "calcCLPSwap",
      "outputs": [
        {
          "internalType": "uint256",
          "name": "y",
          "type": "uint256"
        }
      ],
      "stateMutability": "pure",
      "type": "function",
      "constant": true
    },
    {
      "inputs": [
        {
          "internalType": "uint256",
          "name": "x",
          "type": "uint256"
        },
        {
          "internalType": "uint256",
          "name": "X",
          "type": "uint256"
        },
        {
          "internalType": "uint256",
          "name": "Y",
          "type": "uint256"
        }
      ],
      "name": "calcCLPFee",
      "outputs": [
        {
          "internalType": "uint256",
          "name": "y",
          "type": "uint256"
        }
      ],
      "stateMutability": "pure",
      "type": "function",
      "constant": true
    },
    {
      "inputs": [
        {
          "internalType": "uint256",
          "name": "x",
          "type": "uint256"
        },
        {
          "internalType": "uint256",
          "name": "X",
          "type": "uint256"
        },
        {
          "internalType": "uint256",
          "name": "Y",
          "type": "uint256"
        }
      ],
      "name": "calcCLPLiquidation",
      "outputs": [
        {
          "internalType": "uint256",
          "name": "y",
          "type": "uint256"
        }
      ],
      "stateMutability": "pure",
      "type": "function",
      "constant": true
    },
    {
      "inputs": [
        {
          "internalType": "uint256",
          "name": "a",
          "type": "uint256"
        },
        {
          "internalType": "uint256",
          "name": "A",
          "type": "uint256"
        },
        {
          "internalType": "uint256",
          "name": "m",
          "type": "uint256"
        },
        {
          "internalType": "uint256",
          "name": "M",
          "type": "uint256"
        }
      ],
      "name": "calcStakeUnits",
      "outputs": [
        {
          "internalType": "uint256",
          "name": "units",
          "type": "uint256"
        }
      ],
      "stateMutability": "pure",
      "type": "function",
      "constant": true
    }
  ],
  "bytecode": "0x60c0604052600960808190526813505248105cdcd95d60ba1b60a09081526200002c91600091906200076c565b50604080518082019091526003808252624d414960e81b602090920191825262000059916001916200076c565b506012600255670de0b6b3a76400006004819055600a600f556005805460ff1916600117905560966009556065600855600b5560c860008160033404029050620000af600282026001600160e01b036200042816565b50600334600080805260146020529190047f4f26c3876aa9f4b92579780beea1161a61f87ebf1ec6ee865b299e447ecba99e557f4f26c3876aa9f4b92579780beea1161a61f87ebf1ec6ee865b299e447ecba99d8290556002620001258360033404620004c160201b62002b5d1790919060201c565b816200012d57fe5b047f4f26c3876aa9f4b92579780beea1161a61f87ebf1ec6ee865b299e447ecba9a08190557f4f26c3876aa9f4b92579780beea1161a61f87ebf1ec6ee865b299e447ecba99f805460018082019092557f47c8ecf0c839dfb054bf68079b876aea6b4bba02edb9c1341e41c067869d6356018054336001600160a01b0319918216811790925560008281527f4f26c3876aa9f4b92579780beea1161a61f87ebf1ec6ee865b299e447ecba9a260209081526040808320805460ff1916871790557f4f26c3876aa9f4b92579780beea1161a61f87ebf1ec6ee865b299e447ecba9a18252808320805488019055601082528220805480870182559083528183200180548416905560118054958601815582527f31ecc21a745e3968a04e9570e4425bc18fa8019c68028196b546d1669c200c689094018054909216909217905560095492935091620002a59162000291908690606490620004da811b6200254e17901c565b6200053860201b620025ae1790919060201c565b600060138190557f6e0956cda88cad152e89927e53611735b61a5c762d1428573c6931b0a5efcb02819055600334600202047f7e7fa33969761a458e04f477e039a608702b4f924981d6653935a8319a08ad7b557f7e7fa33969761a458e04f477e039a608702b4f924981d6653935a8319a08ad7c8290557f7e7fa33969761a458e04f477e039a608702b4f924981d6653935a8319a08ad7d80546001600160a01b031990811690915560146020527f4f26c3876aa9f4b92579780beea1161a61f87ebf1ec6ee865b299e447ecba99c805460ff1916600190811790915560158054918201815583527f55f448fdea98c4d29eb340757ef0a66cd03dbb9538908a6a81d96026b71ec4750180549091169055909150620003c730338662000582565b506009546040805183815242602082015233818301526060810185905234608082015260a0810192909252517fa7935d2090c8af510740aa727a13c8268b4b7644c372e3407184b25713005e249181900360c00190a1505050505062000811565b60008082116200043757600080fd5b6200045382600354620004c160201b62002b5d1790919060201c565b600355306000908152600660209081526040909120546200047f91849062002b5d620004c1821b17901c565b30600081815260066020908152604080832094909455835186815293519293919260008051602062003a918339815191529281900390910190a3506001919050565b600082820183811015620004d157fe5b90505b92915050565b600082620004eb57506000620004d4565b82820282848281620004f957fe5b0414620004d15760405162461bcd60e51b815260040180806020018281038252602181526020018062003a706021913960400191505060405180910390fd5b6000620004d183836040518060400160405280601a81526020017f536166654d6174683a206469766973696f6e206279207a65726f000000000000815250620006b260201b60201c565b6001600160a01b038316600090815260066020526040812054821115620005f0576040805162461bcd60e51b815260206004820181905260248201527f53656e646572206d757374206861766520656e6f75676820746f207370656e64604482015290519081900360640190fd5b6001600160a01b0384166000908152600660209081526040909120546200062291849062002b4b62000759821b17901c565b6001600160a01b03808616600090815260066020908152604080832094909455918616815291909120546200066291849062002b5d620004c1821b17901c565b6001600160a01b03808516600081815260066020908152604091829020949094558051868152905191939288169260008051602062003a9183398151915292918290030190a35060019392505050565b60008183620007425760405162461bcd60e51b81526004018080602001828103825283818151815260200191508051906020019080838360005b8381101562000706578181015183820152602001620006ec565b50505050905090810190601f168015620007345780820380516001836020036101000a031916815260200191505b509250505060405180910390fd5b5060008385816200074f57fe5b0495945050505050565b6000828211156200076657fe5b50900390565b828054600181600116156101000203166002900490600052602060002090601f016020900481019282601f10620007af57805160ff1916838001178555620007df565b82800160010185558215620007df579182015b82811115620007df578251825591602001919060010190620007c2565b50620007ed929150620007f1565b5090565b6200080e91905b80821115620007ed5760008155600101620007f8565b90565b61324f80620008216000396000f3fe60806040526004361061031e5760003560e01c80636bb224c3116101ab578063abed0d1b116100f7578063d087874a11610095578063e2f327351161006f578063e2f3273514610c01578063e3785c3b14610c52578063e89909a214610c85578063ec2889f314610cbb57610388565b8063d087874a14610b75578063d4c8ca9b14610bb1578063dd62ed3e14610bc657610388565b8063c6318625116100d1578063c631862514610a6a578063cea5376414610aa3578063cedd35ef14610b03578063d015227614610b4257610388565b8063abed0d1b146109f8578063ad94f8bc14610a2b578063c135319114610a4057610388565b806395d89b41116101645780639e3079551161013e5780639e3079551461094d5780639e650cf314610962578063a6b525c514610995578063a9059cbb146109bf57610388565b806395d89b41146109005780639c0ce768146109155780639c578d2e1461091d57610388565b80636bb224c3146107f757806370a0823114610814578063758a841914610847578063802874e6146108825780638d06e406146108b557806392c9db86146108ca57610388565b806324d7f2691161026a5780634343c701116102235780635daf08ca116101fd5780635daf08ca1461076057806360d562a71461078a57806364b23e5e146107a7578063673a7e28146107e057610388565b80634343c701146107195780634c41ce0e1461072e5780635c10778d1461074357610388565b806324d7f269146106695780632839fc291461069b578063313ce567146106c55780633cdc4178146106da5780633d252e4a146106ef57806340d56e351461070457610388565b80630ce3e050116102d757806315ed834f116102b157806315ed834f146105a157806318160ddd146105e75780631e4b5ede146105fc57806323b872dd1461062657610388565b80630ce3e0501461050b57806313712c9f146105415780631451a7441461057757610388565b806301f55cfe1461038d57806306fdde03146103b4578063095ea7b31461043e57806309772f8f1461048b5780630b25bd84146104a05780630c4a2bd8146104d957610388565b366103885760003411610378576040805162461bcd60e51b815260206004820152601f60248201527f4d757374206265206d6f7265207468616e203020746f206f70656e2043445000604482015290519081900360640190fd5b6103853334600954610cd0565b50005b600080fd5b34801561039957600080fd5b506103a2610e59565b60408051918252519081900360200190f35b3480156103c057600080fd5b506103c9610e5f565b6040805160208082528351818301528351919283929083019185019080838360005b838110156104035781810151838201526020016103eb565b50505050905090810190601f1680156104305780820380516001836020036101000a031916815260200191505b509250505060405180910390f35b34801561044a57600080fd5b506104776004803603604081101561046157600080fd5b506001600160a01b038135169060200135610eed565b604080519115158252519081900360200190f35b34801561049757600080fd5b506103a2610f06565b3480156104ac57600080fd5b50610477600480360360408110156104c357600080fd5b506001600160a01b038135169060200135610f0c565b610477600480360360608110156104ef57600080fd5b506001600160a01b038135169060208101359060400135610ffc565b34801561051757600080fd5b506103a26004803603606081101561052e57600080fd5b50803590602081013590604001356111cf565b6104776004803603606081101561055757600080fd5b506001600160a01b03813581169160208101359091169060400135611251565b34801561058357600080fd5b506104776004803603602081101561059a57600080fd5b5035611427565b3480156105ad57600080fd5b506105cb600480360360208110156105c457600080fd5b50356114bc565b604080516001600160a01b039092168252519081900360200190f35b3480156105f357600080fd5b506103a26114e3565b34801561060857600080fd5b506104776004803603602081101561061f57600080fd5b50356114e9565b34801561063257600080fd5b506104776004803603606081101561064957600080fd5b506001600160a01b03813581169160208101359091169060400135611726565b6104776004803603606081101561067f57600080fd5b506001600160a01b0381351690602081013590604001356117f3565b3480156106a757600080fd5b506105cb600480360360208110156106be57600080fd5b5035611948565b3480156106d157600080fd5b506103a2611955565b3480156106e657600080fd5b506103a261195b565b3480156106fb57600080fd5b506103a2611961565b34801561071057600080fd5b506103a2611967565b34801561072557600080fd5b506103a261196d565b34801561073a57600080fd5b506103a2611973565b6104776004803603602081101561075957600080fd5b5035611979565b34801561076c57600080fd5b506105cb6004803603602081101561078357600080fd5b50356119f0565b610477600480360360208110156107a057600080fd5b50356119fd565b3480156107b357600080fd5b506105cb600480360360408110156107ca57600080fd5b506001600160a01b038135169060200135611bd4565b3480156107ec57600080fd5b506107f5611c17565b005b6104776004803603602081101561080d57600080fd5b5035611c8b565b34801561082057600080fd5b506103a26004803603602081101561083757600080fd5b50356001600160a01b0316611d48565b34801561085357600080fd5b506103a26004803603604081101561086a57600080fd5b506001600160a01b0381358116916020013516611d5a565b34801561088e57600080fd5b506103a2600480360360208110156108a557600080fd5b50356001600160a01b0316611d89565b3480156108c157600080fd5b506103a2611d9e565b3480156108d657600080fd5b506103a2600480360360608110156108ed57600080fd5b5080359060208101359060400135611da4565b34801561090c57600080fd5b506103c9611dba565b610477611e14565b34801561092957600080fd5b506104776004803603604081101561094057600080fd5b5080359060200135611f74565b34801561095957600080fd5b506103a26121ef565b34801561096e57600080fd5b506103a26004803603602081101561098557600080fd5b50356001600160a01b03166121f5565b3480156109a157600080fd5b506103a2600480360360208110156109b857600080fd5b5035612213565b3480156109cb57600080fd5b50610477600480360360408110156109e257600080fd5b506001600160a01b038135169060200135612261565b348015610a0457600080fd5b506103a260048036036020811015610a1b57600080fd5b50356001600160a01b031661226e565b348015610a3757600080fd5b506103a2612289565b348015610a4c57600080fd5b506103a260048036036020811015610a6357600080fd5b503561228f565b348015610a7657600080fd5b506105cb60048036036040811015610a8d57600080fd5b506001600160a01b0381351690602001356122f2565b348015610aaf57600080fd5b50610ad660048036036020811015610ac657600080fd5b50356001600160a01b0316612316565b60408051951515865293151560208601528484019290925260608401526080830152519081900360a00190f35b348015610b0f57600080fd5b5061047760048036036060811015610b2657600080fd5b506001600160a01b038135169060208101359060400135612348565b348015610b4e57600080fd5b506103a260048036036020811015610b6557600080fd5b50356001600160a01b03166123e4565b348015610b8157600080fd5b506103a260048036036080811015610b9857600080fd5b5080359060208101359060408101359060600135612420565b348015610bbd57600080fd5b506103a26124a9565b348015610bd257600080fd5b506103a260048036036040811015610be957600080fd5b506001600160a01b03813581169160200135166124af565b348015610c0d57600080fd5b50610c2b60048036036020811015610c2457600080fd5b50356124cc565b6040805193845260208401929092526001600160a01b031682820152519081900360600190f35b348015610c5e57600080fd5b506103a260048036036020811015610c7557600080fd5b50356001600160a01b03166124f6565b348015610c9157600080fd5b506103a260048036036060811015610ca857600080fd5b5080359060208101359060400135612532565b348015610cc757600080fd5b506103a2612548565b600080610cdc8461228f565b90506000610d0184610cf584606463ffffffff61254e16565b9063ffffffff6125ae16565b6001600160a01b0387166000908152601060205260409020600101549091508015610d48576000818152601260205260409020805487018155600101805483019055610da0565b50601380546001908101918290556001600160a01b0388166000818152601060209081526040808320850186905585835260129091529020888155918201849055600290910180546001600160a01b03191690911790555b610da9826125f0565b50610db5308884612687565b610df05760405162461bcd60e51b815260040180806020018281038252602381526020018061316a6023913960400191505060405180910390fd5b604080518281524260208201526001600160a01b03891681830152606081018490526080810188905260a0810187905290517fa7935d2090c8af510740aa727a13c8268b4b7644c372e3407184b25713005e249181900360c00190a15060019695505050505050565b600b5481565b6000805460408051602060026001851615610100026000190190941693909304601f81018490048402820184019092528181529291830182828015610ee55780601f10610eba57610100808354040283529160200191610ee5565b820191906000526020600020905b815481529060010190602001808311610ec857829003601f168201915b505050505081565b6000610efa3384846127b3565b50600190505b92915050565b60115490565b6000806000610f1b858561281e565b90925090506001600160a01b038516610f6157604051339082156108fc029083906000818181858888f19350505050158015610f5b573d6000803e3d6000fd5b50610fdd565b6040805163a9059cbb60e01b81523360048201526024810183905290516001600160a01b0387169163a9059cbb9160448083019260209291908290030181600087803b158015610fb057600080fd5b505af1158015610fc4573d6000803e3d6000fd5b505050506040513d6020811015610fda57600080fd5b50505b610fe8303384612687565b610ff157600080fd5b506001949350505050565b600c54600090600511611056576040805162461bcd60e51b815260206004820152601860248201527f6d757374206f6e6c792068617665203520616e63686f72730000000000000000604482015290519081900360640190fd5b6001600160a01b038416600090815260146020526040902054610100900460ff166111c557611086333084612687565b50604080516323b872dd60e01b81523360048201523060248201526044810185905290516001600160a01b038616916323b872dd9160648083019260209291908290030181600087803b1580156110dc57600080fd5b505af11580156110f0573d6000803e3d6000fd5b505050506040513d602081101561110657600080fd5b50506001600160a01b0384166000908152601460205260409020805461ff001960ff199091166001171661010017905561114184848461298d565b600c805460018181019092557fdf6966c971051c3d54ec59162606531493a51404a002842f56009d7e5cf4a8c70180546001600160a01b0387166001600160a01b031991821681179092556015805493840181556000527f55f448fdea98c4d29eb340757ef0a66cd03dbb9538908a6a81d96026b71ec47590920180549092161790555b5060019392505050565b6000806112026111f56111e8868863ffffffff612b4b16565b859063ffffffff61254e16565b869063ffffffff61254e16565b90506000611235611219878763ffffffff612b5d16565b611229888863ffffffff612b5d16565b9063ffffffff61254e16565b9050611247828263ffffffff6125ae16565b9695505050505050565b6000808211611298576040805162461bcd60e51b815260206004820152600e60248201526d135d5cdd0819d95d08105cdcd95d60921b604482015290519081900360640190fd5b6000806001600160a01b0386166112f1578334146112ec576040805162461bcd60e51b815260206004820152600c60248201526b0daeae6e840cecae8408aa8960a31b604482015290519081900360640190fd5b611395565b6001600160a01b0386163014156113135761130d333086612687565b50611395565b604080516323b872dd60e01b81523360048201523060248201526044810186905290516001600160a01b038816916323b872dd9160648083019260209291908290030181600087803b15801561136857600080fd5b505af115801561137c573d6000803e3d6000fd5b505050506040513d602081101561139257600080fd5b50505b6113a0868686612b6c565b604080516001600160a01b03808b1682528916602082015280820188905260608101849052608081018390523360a082015290519294509092507f5f159529725ffd2b46cc6592b8e5812527c7bbb61af2528492055e641628737c919081900360c00190a161141185838333612bfb565b61141b8686612cf4565b50600195945050505050565b60008181526012602090815260408220805460019091015483805260149092527f4f26c3876aa9f4b92579780beea1161a61f87ebf1ec6ee865b299e447ecba99e547f4f26c3876aa9f4b92579780beea1161a61f87ebf1ec6ee865b299e447ecba99d549192918461149a8584846111cf565b9050838110156114ad57600195506114b2565b600095505b5050505050919050565b600c81815481106114c957fe5b6000918252602090912001546001600160a01b0316905081565b60035481565b336000908152601060205260408120600101548061153f576040805162461bcd60e51b815260206004820152600e60248201526d10d114081b5d5cdd08195e1a5cdd60921b604482015290519081900360640190fd5b6000831161157e5760405162461bcd60e51b81526004018080602001828103825260228152602001806131f86022913960400191505060405180910390fd5b6127108311156115bf5760405162461bcd60e51b815260040180806020018281038252602181526020018061318d6021913960400191505060405180910390fd5b60008181526012602052604081206001015490612710906115f66115e9838863ffffffff6125ae16565b849063ffffffff6125ae16565b60008581526012602052604081205491925061162861161b858a63ffffffff6125ae16565b839063ffffffff6125ae16565b9050611635333085612687565b5061163f83612d66565b611681576040805162461bcd60e51b815260206004820152600e60248201526d135d5cdd08189d5c9b881919589d60921b604482015290519081900360640190fd5b60008681526012602052604080822060018101805487900390558054849003905551339183156108fc02918491818181858888f193505050501580156116cb573d6000803e3d6000fd5b50604080518781524260208201523381830152606081018590526080810183905290517fbb34e4a8404f713f72b3aa4780f76e5cb9a5903c83d80310d8cddd5ecc03c3179181900360a00190a1506001979650505050505050565b6001600160a01b03808416600090815260076020908152604080832093861683529290529081205482111561178c5760405162461bcd60e51b81526004018080602001828103825260298152602001806131ae6029913960400191505060405180910390fd5b6001600160a01b038085166000908152600760209081526040808320938716835292905220546117c2908363ffffffff612b4b16565b6001600160a01b03808616600090815260076020908152604080832093881683529290522055610ff1848484612687565b600080821180156118045750600083115b61184d576040805162461bcd60e51b815260206004820152601560248201527426bab9ba1033b2ba1026b0b49037b9103a37b5b2b760591b604482015290519081900360640190fd5b611858333084612687565b50604080516323b872dd60e01b81523360048201523060248201526044810185905290516001600160a01b038616916323b872dd9160648083019260209291908290030181600087803b1580156118ae57600080fd5b505af11580156118c2573d6000803e3d6000fd5b505050506040513d60208110156118d857600080fd5b50506015805460018082019092557f55f448fdea98c4d29eb340757ef0a66cd03dbb9538908a6a81d96026b71ec4750180546001600160a01b0319166001600160a01b0387169081179091556000908152601460205260409020805460ff191690911790556111c584848461298d565b601581815481106114c957fe5b60025481565b600f5481565b60095481565b600e5481565b60135481565b60085481565b6000808211806119895750600034115b6119d0576040805162461bcd60e51b815260206004820152601360248201527209aeae6e840cecae8409ac2d240dee4408ae8d606b1b604482015290519081900360640190fd5b6119db333084612687565b506119e86000348461298d565b506001919050565b601181815481106114c957fe5b6000600854821015611a52576040805162461bcd60e51b81526020600482015260196024820152784d7573742062652067726561746572207468616e203130312560381b604482015290519081900360640190fd5b3360009081526010602052604090206001015480611ab2576040805162461bcd60e51b81526020600482015260186024820152774d75737420626520616e206f776e657220616c726561647960401b604482015290519081900360640190fd5b60008181526012602052604081205490611acb8261228f565b90506000611ae486610cf584606463ffffffff61254e16565b60008581526012602052604081206001015491925090611b0b90839063ffffffff612b4b16565b60008681526012602052604090206001018054820190559050611b2d816125f0565b50611b39303383612687565b611b745760405162461bcd60e51b815260040180806020018281038252602381526020018061316a6023913960400191505060405180910390fd5b604080518681524260208201523381830152606081018390526000608082015260a0810189905290517f99349e3e915f5052737c40f222795c4bd5e8ee2e41e21dcb6a8aaf7c4c5736479181900360c00190a15060019695505050505050565b6001600160a01b0382166000908152601460205260408120600301805483908110611bfb57fe5b6000918252602090912001546001600160a01b03169392505050565b611c1f61312a565b60005b6005811015611c6e57611c55600c8281548110611c3b57fe5b6000918252602090912001546001600160a01b03166123e4565b828260058110611c6157fe5b6020020152600101611c22565b50611c7761312a565b611c8082612e18565b60400151600b555050565b6000803411611ce1576040805162461bcd60e51b815260206004820152601f60248201527f4d757374206265206d6f7265207468616e203020746f206f70656e2043445000604482015290519081900360640190fd5b600854821015611d34576040805162461bcd60e51b81526020600482015260196024820152784d7573742062652067726561746572207468616e203130312560381b604482015290519081900360640190fd5b611d3f333484610cd0565b50600192915050565b60066020526000908152604090205481565b6001600160a01b0391821660009081526014602090815260408083209390941682526005909201909152205490565b60106020526000908152604090206001015481565b60155490565b6000806112026111f5848763ffffffff61254e16565b60018054604080516020600284861615610100026000190190941693909304601f81018490048402820184019092528181529291830182828015610ee55780601f10610eba57610100808354040283529160200191610ee5565b6000803411611e6a576040805162461bcd60e51b815260206004820152601f60248201527f4d757374206265206d6f7265207468616e203020746f206f70656e2043445000604482015290519081900360640190fd5b3360009081526010602052604090206001015480611eca576040805162461bcd60e51b81526020600482015260186024820152774d75737420626520616e206f776e657220616c726561647960401b604482015290519081900360640190fd5b60008181526012602052604081208054340190819055611ee99061228f565b60008381526012602052604081206001015491925090611f1490610cf584606463ffffffff61254e16565b6040805185815242602082015233818301526000606082015234608082015260a0810183905290519192507f99349e3e915f5052737c40f222795c4bd5e8ee2e41e21dcb6a8aaf7c4c573647919081900360c00190a16001935050505090565b6000808311611fc3576040805162461bcd60e51b815260206004820152601660248201527506d7573742062652067726561746572207468616e20360541b604482015290519081900360640190fd5b601354831115612007576040805162461bcd60e51b815260206004820152600a6024820152691b5d5cdd08195e1a5cdd60b21b604482015290519081900360640190fd5b600082116120465760405162461bcd60e51b81526004018080602001828103825260228152602001806131f86022913960400191505060405180910390fd5b610d058211156120875760405162461bcd60e51b81526004018080602001828103825260218152602001806131496021913960400191505060405180910390fd5b61209083611427565b156121e757600083815260126020526040812080546001909101549091612710906120c582610cf5868963ffffffff61254e16565b905060006120dd83610cf5868a63ffffffff61254e16565b90506000806120ed813086612b6c565b60008c815260126020908152604091829020805489900381556001018054889003905581518e815242918101919091523381830152606081018d90526080810188905260a0810184905260c0810187905286840360e082018190529151939550919350917f18be1fd69582441af305bfdbab6adc71a4cedcef561788b6a884795146009f85918190036101000190a161218584612d66565b50612191303383612687565b6121d6576040805162461bcd60e51b81526020600482015260116024820152706d757374207472616e736665722066656560781b604482015290519081900360640190fd5b600198505050505050505050610f00565b506000610f00565b600a5481565b6001600160a01b031660009081526014602052604090206003015490565b60008061222060006124f6565b9050600061223f600454610cf584600b5461254e90919063ffffffff16565b60045490915061225990610cf5868463ffffffff61254e16565b949350505050565b6000610efa338484612687565b6001600160a01b031660009081526010602052604090205490565b60045481565b600080805260146020527f4f26c3876aa9f4b92579780beea1161a61f87ebf1ec6ee865b299e447ecba99e547f4f26c3876aa9f4b92579780beea1161a61f87ebf1ec6ee865b299e447ecba99d54826122e9858484612532565b95945050505050565b6001600160a01b0382166000908152601060205260408120805483908110611bfb57fe5b601460205260009081526040902080546001820154600283015460049093015460ff8084169461010090940416929085565b604080516323b872dd60e01b81523360048201523060248201526044810184905290516000916001600160a01b038616916323b872dd9160648082019260209290919082900301818787803b1580156123a057600080fd5b505af11580156123b4573d6000803e3d6000fd5b505050506040513d60208110156123ca57600080fd5b506123d89050333084612687565b506111c584848461298d565b6001600160a01b03811660009081526014602052604081206002810154600190910154600454612259908290610cf5908563ffffffff61254e16565b600080612433838663ffffffff612b5d16565b90506000612447858763ffffffff61254e16565b9050600061245b858963ffffffff61254e16565b905060006124726111e8848463ffffffff612b5d16565b90506000612486878a63ffffffff61254e16565b600402905061249b828263ffffffff6125ae16565b9a9950505050505050505050565b600c5490565b600760209081526000928352604080842090915290825290205481565b6012602052600090815260409020805460018201546002909201549091906001600160a01b031683565b6001600160a01b03811660009081526014602052604081206002810154600190910154600454612259908390610cf5908463ffffffff61254e16565b6000806112026111f5848663ffffffff61254e16565b600d5481565b60008261255d57506000610f00565b8282028284828161256a57fe5b04146125a75760405162461bcd60e51b81526004018080602001828103825260218152602001806131d76021913960400191505060405180910390fd5b9392505050565b60006125a783836040518060400160405280601a81526020017f536166654d6174683a206469766973696f6e206279207a65726f000000000000815250612ec6565b60008082116125fe57600080fd5b600354612611908363ffffffff612b5d16565b60035530600090815260066020526040902054612634908363ffffffff612b5d16565b3060008181526006602090815260408083209490945583518681529351929391927fddf252ad1be2c89b69c2b068fc378daa952ba7f163c4a11628f55a4df523b3ef9281900390910190a3506001919050565b6001600160a01b0383166000908152600660205260408120548211156126f4576040805162461bcd60e51b815260206004820181905260248201527f53656e646572206d757374206861766520656e6f75676820746f207370656e64604482015290519081900360640190fd5b6001600160a01b03841660009081526006602052604090205461271d908363ffffffff612b4b16565b6001600160a01b038086166000908152600660205260408082209390935590851681522054612752908363ffffffff612b5d16565b6001600160a01b0380851660008181526006602090815260409182902094909455805186815290519193928816927fddf252ad1be2c89b69c2b068fc378daa952ba7f163c4a11628f55a4df523b3ef92918290030190a35060019392505050565b6001600160a01b03808416600081815260076020908152604080832094871680845294825280832086905580518681529051929493927f8c5be1e5ebec7d5bd14f71427d1e84f3dd0314c0f7b2291e5b200ac8c7c3b925929181900390910190a35060019392505050565b6001600160a01b0382166000908152601460209081526040808320338452600501909152812054819061285057600080fd5b61271083111561285f57600080fd5b6000831161286c57600080fd5b6001600160a01b038416600081815260146020818152604080842033855260058101835290842054949093525260048101546001820154600290920154612710939287840285900492916128c483610cf5848761254e565b97506128da83610cf5838763ffffffff61254e16565b6001600160a01b038b1660008181526014602081815260408084203380865260058201845282862080548d90039055948690529282526004830180548b900390556001830180548f9003905560029092018054869003905581519384528301919091528181018b90526060820183905260808201879052519198507feb755d537a0caac69ccb1ac1dc2b7397a32bb19f93bd06013c57ac0b2e5dd69c919081900360a00190a15050505050509250929050565b6001600160a01b0383166000908152601460209081526040808320805460ff19168155600181018054860190556002810180548701905533845260060190915290205460ff16612a89576001600160a01b038316600081815260146020908152604080832060038101805460018082018355918652848620018054336001600160a01b0319918216811790925581875260108652848720805480850182559088528688200180548216909817909755601180548084019091557f31ecc21a745e3968a04e9570e4425bc18fa8019c68028196b546d1669c200c6801805490971681179096559484526006019091529020805460ff191690911790555b6001600160a01b038316600090815260146020526040812060018101546002909101549091612aba85838686612420565b6001600160a01b0387166000818152601460209081526040808320600481018054870190553380855260059091018352928190208054860190558051938452908301919091528181018790526060820188905260808201839052519192507f2f3289d16dbc3007471d28c4936df3a95222bc938112449400d049637e3309ce919081900360a00190a1505050505050565b600082821115612b5757fe5b50900390565b6000828201838110156125a757fe5b6000806001600160a01b038516301415612b915760009150612b8e8484612f68565b90505b6001600160a01b038416301415612bb357612bac8584612fea565b9150600090505b6001600160a01b0385163014801590612bd557506001600160a01b0384163014155b15612bf357612be48584612fea565b9150612bf08483612f68565b90505b935093915050565b6001600160a01b038416612c45576040516001600160a01b0382169083156108fc029084906000818181858888f19350505050158015612c3f573d6000803e3d6000fd5b50612cee565b6001600160a01b038416301415612c6157612c3f308285612687565b836001600160a01b031663a9059cbb82846040518363ffffffff1660e01b815260040180836001600160a01b03166001600160a01b0316815260200182815260200192505050602060405180830381600087803b158015612cc157600080fd5b505af1158015612cd5573d6000803e3d6000fd5b505050506040513d6020811015612ceb57600080fd5b50505b50505050565b6001600160a01b038216600090815260146020526040812054610100900460ff1615612d21575081612d4a565b6001600160a01b038216600090815260146020526040902054610100900460ff1615612d4a5750805b6001600160a01b03811615612d6157612d61611c17565b505050565b6000808211612d7457600080fd5b30600090815260066020526040902054821115612d9057600080fd5b600354612da3908363ffffffff612b4b16565b60035530600090815260066020526040902054612dc6908363ffffffff612b4b16565b306000818152600660209081526040808320949094558351868152935191937fddf252ad1be2c89b69c2b068fc378daa952ba7f163c4a11628f55a4df523b3ef929081900390910190a3506001919050565b612e2061312a565b600560005b81811015612ebe57600181015b82811015612eb557848160058110612e4657fe5b6020020151858360058110612e5757fe5b60200201511115612ead576000858360058110612e7057fe5b60200201519050858260058110612e8357fe5b6020020151868460058110612e9457fe5b602002015280868360058110612ea657fe5b6020020152505b600101612e32565b50600101612e25565b509192915050565b60008183612f525760405162461bcd60e51b81526004018080602001828103825283818151815260200191508051906020019080838360005b83811015612f17578181015183820152602001612eff565b50505050905090810190601f168015612f445780820380516001836020036101000a031916815260200191505b509250505060405180910390fd5b506000838581612f5e57fe5b0495945050505050565b6001600160a01b0382166000908152601460205260408120600181015460028201549154909190610100900460ff1615612fa957612fa6858561304e565b93505b612fb4848383612532565b6001600160a01b038616600090815260146020526040902060018101805487019055600201805482900390559250505092915050565b6001600160a01b03821660009081526014602052604081206002810154600190910154613018848383612532565b6001600160a01b038616600090815260146020526040902060028101805487019055600101805482900390559250505092915050565b60008061305a846123e4565b90506000600b548210156130c057613083600f54610cf584600b54612b4b90919063ffffffff16565b905060006130a0600b54610cf5848861254e90919063ffffffff16565b90506130ab81612d66565b506130bc858263ffffffff612b4b16565b9350505b600b54821115613122576130e5600f54610cf5600b5485612b4b90919063ffffffff16565b90506000613102600b54610cf5848861254e90919063ffffffff16565b905061310d816125f0565b5061311e858263ffffffff612b5d16565b9350505b505092915050565b6040518060a00160405280600590602082028036833750919291505056fe4c69717569646174696f6e206d757374206265206c657373207468616e203333254d757374207472616e73666572206d696e7420616d6f756e7420746f2073656e6465724c69717569646174696f6e206d757374206265206c657373207468616e2031306b53656e646572206d757374206861766520656e6f75676820616c6c6f77616e636520746f2073656e64536166654d6174683a206d756c7469706c69636174696f6e206f766572666c6f774c69717569646174696f6e206d7573742062652067726561746572207468616e2030a2646970667358221220747437bc0fb1473db2732a504ec3661f84eac661a8294f09ac39b8cff4f1e3a164736f6c63430006040033536166654d6174683a206d756c7469706c69636174696f6e206f766572666c6f77ddf252ad1be2c89b69c2b068fc378daa952ba7f163c4a11628f55a4df523b3ef",
  "source": "pragma solidity 0.6.4;\ninterface ERC20 {\n    function totalSupply() external view returns (uint);\n    function balanceOf(address account) external view returns (uint);\n    function transfer(address, uint) external returns (bool);\n    function allowance(address owner, address spender) external view returns (uint);\n    function approve(address, uint) external returns (bool);\n    function transferFrom(address, address, uint) external returns (bool);\n    event Transfer(address indexed from, address indexed to, uint amount);\n    event Approval(address indexed owner, address indexed spender, uint amount);\n}\nlibrary SafeMath {\n function sub(uint a, uint b) internal pure returns (uint) {\n  assert(b <= a);\n  return a - b;\n  }\n\n function add(uint a, uint b) internal pure returns (uint)   {\n  uint c = a + b;\n  assert(c >= a);\n  return c;\n  }\n  function mul(uint a, uint b) internal pure returns (uint) {\n      if (a == 0) {\n          return 0;\n      }\n      uint c = a * b;\n      require(c / a == b, \"SafeMath: multiplication overflow\");\n      return c;\n  }\n\n  function div(uint a, uint b) internal pure returns (uint) {\n      return div(a, b, \"SafeMath: division by zero\");\n  }\n\n  function div(uint a, uint b, string memory errorMessage) internal pure returns (uint) {\n      require(b > 0, errorMessage);\n      uint c = a / b;\n      return c;\n  }\n}\ncontract MAI is ERC20{\n    using SafeMath for uint;\n    string public name = \"MAI Asset\";\n    string public symbol = \"MAI\";\n    uint public decimals  = 18;\n    uint public override totalSupply;\n    uint public _1 = 10**decimals;\n    bool private notEntered;\n\n    mapping(address => uint) public override balanceOf;\n    mapping(address => mapping(address => uint)) public override allowance;\n\n    uint public minCollaterisation;\n    uint public defaultCollateralisation;\n    uint public etherPrice;\n    uint public medianMAIValue;\n    address[] public arrayAnchor;\n    uint public mintedMAI;\n    uint public pooledMAI;\n    uint public incentiveFactor = 10;\n    mapping(address => MemberData) public mapAddress_MemberData;\n    address[] public members;\n    struct MemberData {\n        address[] exchanges;\n        uint CDP;\n    }\n  \n    mapping(uint => CDPData) public mapCDP_Data;\n    uint public countOfCDPs;\n    struct CDPData {\n        uint collateral;\n        uint debt;\n        address payable owner;\n    }\n    mapping(address => ExchangeData) public mapAsset_ExchangeData;\n    \n    address[] public exchanges;\n     struct ExchangeData {\n        bool listed;\n        bool isAnchor;\n        uint balanceMAI;\n        uint balanceAsset;\n        address[] stakers;\n        uint poolUnits;\n        mapping(address => uint) stakerUnits;\n        mapping(address => bool) isActivePoolStaker;\n    }\n    event Transfer (address indexed from, address indexed to, uint amount);\n    event Approval ( address indexed owner, address indexed spender, uint amount);\n\n    event NewCDP(uint CDP, uint time, address owner, uint debtIssued, uint collateralHeld, uint collateralisation);\n    event UpdateCDP(uint CDP, uint time, address owner, uint debtAdded, uint collateralAdded, uint collateralisation);\n    event CloseCDP(uint CDP, uint time, address owner, uint debtPaid, uint etherReturned);\n    event LiquidateCDP(uint CDP, uint time, address liquidator, uint liquidation, uint etherSold, uint maiBought, uint debtDeleted, uint feeClaimed);\n    event AddLiquidity(address asset, address liquidityProvider, uint amountMAI, uint amountAsset, uint unitsIssued);\n    event RemoveLiquidity(address asset, address liquidityProvider, uint amountMAI, uint amountAsset, uint unitsClaimed);\n    event Swapped(address assetFrom, address assetTo, uint inputAmount, uint maiAmount, uint outPutAmount, address recipient);\n    event AnchorRemoved(address assetAnchor, uint delta, uint assetValue, address recipient);\n    //======##Getters##======\n    function calcStakerUnits(address asset, address staker) public view returns(uint stakerUnits){\n         return (mapAsset_ExchangeData[asset].stakerUnits[staker]);\n    }\n    function calcStakerAddress(address asset, uint index) public view returns(address staker){\n        return(mapAsset_ExchangeData[asset].stakers[index]);\n    }\n    function calcStakerCount(address asset) public view returns (uint){\n        return(mapAsset_ExchangeData[asset].stakers.length);\n    }\n    function getExhangesCount() public view returns (uint){\n        return exchanges.length;\n    }\n    function getAnchorsCount() public view returns (uint){\n        return arrayAnchor.length;\n    }\n    function getMembersCount() public view returns (uint){\n        return members.length;\n    }\n    function getMemberExchangeCount(address member) public view returns (uint){\n        return (mapAddress_MemberData[member].exchanges.length);\n    }\n    function getStakerExchanges (address member, uint index) public view returns (address exchange){\n         return (mapAddress_MemberData[member].exchanges[index]);\n    }\n\n    function transfer(address to, uint amount) public override  returns (bool success) {\n        _transfer(msg.sender, to, amount);\n        return true;\n    }\n    function approve(address spender, uint amount) public override  returns (bool success) {\n        _approve(msg.sender, spender, amount);\n        return true;\n    }\n    function _approve(address _approver, address _spender, uint _amount) internal returns (bool success){\n        allowance[_approver][_spender] = _amount;\n        emit Approval(_approver, _spender, _amount);\n        return true;\n    }\n    function _transfer(address _from, address _to, uint _amount) internal returns (bool success) {\n        require(balanceOf[_from] >= _amount,'Sender must have enough to spend');\n        balanceOf[_from] = balanceOf[_from].sub(_amount);\n        balanceOf[_to] = balanceOf[_to].add(_amount);\n        emit Transfer(_from, _to, _amount);\n        return true;\n    }\n    function transferFrom(address from, address to, uint amount) public override returns (bool success) {\n        require(amount <= allowance[from][to], 'Sender must have enough allowance to send');\n        allowance[from][to] = allowance[from][to].sub(amount);\n        _transfer(from, to, amount);\n        return true;\n    }\n\n    function _mint(uint _amount) internal returns (bool success){\n        require(_amount > 0);\n        totalSupply = totalSupply.add(_amount);\n        balanceOf[address(this)] = balanceOf[address(this)].add(_amount);\n        emit Transfer(address(0), address(this), _amount);\n        return true;\n    }\n\n    function _burn(uint _amount) internal returns (bool success){\n        require (_amount > 0); require (_amount <= balanceOf[address(this)]);\n        totalSupply = totalSupply.sub(_amount);\n        balanceOf[address(this)] = balanceOf[address(this)].sub(_amount);\n        emit Transfer(address(this), address(0), _amount);\n        return true;\n    }\n\n    constructor () public payable {\n        notEntered = true;\n        defaultCollateralisation = 150;\n        minCollaterisation = 101;\n        medianMAIValue = _1;\n        uint genesisPrice = 200;\n        uint purchasingPower = (msg.value/3) * genesisPrice; \n        _mint(purchasingPower*2);\n        mapAsset_ExchangeData[address(0)].balanceAsset = msg.value/3;  \n        mapAsset_ExchangeData[address(0)].balanceMAI = purchasingPower;\n        uint poolUnit = ((msg.value/3).add(purchasingPower))/2;\n        mapAsset_ExchangeData[address(0)].poolUnits = poolUnit;\n        mapAsset_ExchangeData[address(0)].stakers.push(msg.sender);\n        mapAsset_ExchangeData[address(0)].isActivePoolStaker[msg.sender] = true;\n        mapAsset_ExchangeData[address(0)].stakerUnits[msg.sender] += poolUnit;\n        mapAddress_MemberData[msg.sender].exchanges.push(address(0));\n        members.push(msg.sender);\n        uint mintAmount = (purchasingPower.mul(100)).div(defaultCollateralisation);\n        uint CDP = 0; countOfCDPs = 0; \n        mapAddress_MemberData[address(0)].CDP = CDP;\n        mapCDP_Data[CDP].collateral = (msg.value * 2)/3;\n        mapCDP_Data[CDP].debt = mintAmount;\n        mapCDP_Data[CDP].owner = address(0);\n        mapAsset_ExchangeData[address(0)].listed = true;\n        exchanges.push(address(0));\n        _transfer(address(this), msg.sender, purchasingPower);\n        emit NewCDP(CDP, now, msg.sender, mintAmount, msg.value, defaultCollateralisation);\n    }\n    \n    function addExchange(address asset, uint amountAsset, uint amountMAI) public payable returns (bool success){\n         require((amountMAI > 0) && ((amountAsset > 0)), \"Must get Mai or token\");\n         _transfer(msg.sender, address(this), amountMAI);\n        ERC20(asset).transferFrom(msg.sender, address(this), amountAsset);\n        exchanges.push(asset);\n        mapAsset_ExchangeData[asset].listed = true;\n        _addLiquidity(asset, amountAsset, amountMAI);\n        return true;\n    }\n\n    receive() external payable {\n      require (msg.value > 0, 'Must be more than 0 to open CDP');\n      _manageCDP(msg.sender, msg.value, defaultCollateralisation);\n    }\n\n    function openCDP(uint collateralisation) public payable returns (bool success) {\n      require (msg.value > 0, 'Must be more than 0 to open CDP');\n      require (collateralisation >= minCollaterisation, \"Must be greater than 101%\");\n      _manageCDP(msg.sender, msg.value, collateralisation);\n      return true;\n    }\n\n    function addCollateralToCDP() public payable returns (bool success) {\n        require (msg.value > 0, 'Must be more than 0 to open CDP');\n        uint CDP = mapAddress_MemberData[msg.sender].CDP;\n        require (CDP > 0, \"Must be an owner already\");\n        mapCDP_Data[CDP].collateral += msg.value;\n        uint purchasingPower = calcEtherPPinMAI(mapCDP_Data[CDP].collateral);//how valuable Ether is in MAI\n        uint collateralisation = ((purchasingPower).mul(100)).div(mapCDP_Data[CDP].debt);\n        emit UpdateCDP(CDP, now, msg.sender, 0, msg.value, collateralisation);\n        return true;\n    }\n\n    function remintMAIFromCDP(uint collateralisation) public payable returns (bool success) {\n        require (collateralisation >= minCollaterisation, \"Must be greater than 101%\");\n        uint CDP = mapAddress_MemberData[msg.sender].CDP;\n        require (CDP != 0, \"Must be an owner already\");\n        uint collateral = mapCDP_Data[CDP].collateral;\n        uint purchasingPower = calcEtherPPinMAI(collateral);//how valuable Ether is in MAI\n        uint maxMintAmount = (purchasingPower.mul(100)).div(collateralisation);\n        uint additionalMintAmount = maxMintAmount.sub(mapCDP_Data[CDP].debt);\n        mapCDP_Data[CDP].debt += additionalMintAmount;\n        _mint(additionalMintAmount);\n        require (_transfer(address(this), msg.sender, additionalMintAmount), 'Must transfer mint amount to sender');\n        emit UpdateCDP(CDP, now, msg.sender, additionalMintAmount, 0, collateralisation);\n        return true;\n    }\n\n    function _manageCDP(address payable _owner, uint _value, uint _collateralisation) internal returns (bool success){\n      uint purchasingPower = calcEtherPPinMAI(_value);//how valuable Ether is in MAI\n      uint mintAmount = (purchasingPower.mul(100)).div(_collateralisation);\n      uint CDP = mapAddress_MemberData[_owner].CDP;\n      if (CDP != 0) {\n          mapCDP_Data[CDP].collateral += _value;\n          mapCDP_Data[CDP].debt += mintAmount;\n      } else {\n          countOfCDPs += 1;\n          CDP = countOfCDPs;\n          mapAddress_MemberData[_owner].CDP = CDP;\n          mapCDP_Data[CDP].collateral = _value;\n          mapCDP_Data[CDP].debt = mintAmount;\n          mapCDP_Data[CDP].owner = _owner;\n      }\n      _mint(mintAmount);\n      require (_transfer(address(this), _owner, mintAmount), 'Must transfer mint amount to sender');\n      emit NewCDP(CDP, now, _owner, mintAmount, _value, _collateralisation);\n      return true;\n    }\n\n    function closeCDP(uint _liquidation) public returns (bool success){\n      uint CDP = mapAddress_MemberData[msg.sender].CDP;\n      require(CDP != 0, 'CDP must exist'); //require CDP exists\n      require(_liquidation > 0, 'Liquidation must be greater than 0'); //require liquidation to be greater than 0\n      require(_liquidation <= 10000, 'Liquidation must be less than 10k');\n      uint debt = mapCDP_Data[CDP].debt;\n      uint basisPoints = 10000;\n      uint closeAmount = debt.div(basisPoints.div(_liquidation));\n      uint collateral = mapCDP_Data[CDP].collateral;\n      uint returnAmount = collateral.div(basisPoints.div(_liquidation));\n     // require(MAI._approve(msg.sender, address(this), closeAmount), 'Must approve first');\n      //require(MAI.transferFrom(msg.sender, address(this), closeAmount), 'must collect debt');\n      _transfer(msg.sender, address(this), closeAmount);\n      require(_burn(closeAmount), 'Must burn debt');\n      mapCDP_Data[CDP].debt -= closeAmount;\n      mapCDP_Data[CDP].collateral -= returnAmount;\n      msg.sender.transfer(returnAmount);\n      emit CloseCDP(CDP, now, msg.sender, closeAmount, returnAmount);\n      return true;\n    }\n\n    function liquidateCDP(uint CDP, uint liquidation) public returns (bool success){\n        require(CDP > 0, \"must be greater than 0\");\n        require(CDP <= countOfCDPs, \"must exist\");\n        require(liquidation > 0, 'Liquidation must be greater than 0'); //require liquidation to be greater than 0\n        require(liquidation <= 3333, 'Liquidation must be less than 33%');\n        if (checkLiquidationPoint(CDP)){\n            uint collateral = mapCDP_Data[CDP].collateral;\n            uint debt = mapCDP_Data[CDP].debt;\n            uint basisPoints = 10000;\n            uint liquidatedCollateral = (collateral.mul(liquidation)).div(basisPoints);\n            uint debtDeleted = (debt.mul(liquidation)).div(basisPoints);\n            uint maiBought; uint _y = 0;\n            (maiBought, _y) = _swapTokenToToken(address(0), address(this), liquidatedCollateral);\n            uint fee = maiBought - debtDeleted;\n            mapCDP_Data[CDP].collateral -= liquidatedCollateral;\n            mapCDP_Data[CDP].debt -= debtDeleted;\n            emit LiquidateCDP(CDP, now, msg.sender, liquidation, liquidatedCollateral, maiBought, debtDeleted, fee);\n            _burn(debtDeleted);\n            require(_transfer(address(this), address(msg.sender), fee), \"must transfer fee\");\n            return true;\n        }   else {\n            return false;\n        }\n    }\n\n    //==================================================================================//\n    // Liquidity functions\n\n    function addLiquidityToEtherPool (uint amountMAI) public payable returns (bool success) {\n        require((amountMAI > 0) || ((msg.value > 0)), \"Must get Mai or Eth\");\n        //require(transferFrom(msg.sender, address(this), amountMAI), \"Must collect MAI\");\n        _transfer(msg.sender, address(this), amountMAI);\n        _addLiquidity(address(0), msg.value, amountMAI);\n        return true;\n    }\n\n    function addLiquidityToAssetPool (address asset, uint amountAsset, uint amountMAI) public returns (bool success) {\n        ERC20(asset).transferFrom(msg.sender, address(this), amountAsset);  \n        //require(transferFrom(msg.sender, address(this), amountMAI), \"Must collect MAI\");\n        _transfer(msg.sender, address(this), amountMAI);\n        _addLiquidity(asset, amountAsset, amountMAI);\n        return true;\n    }\n \n    function _addLiquidity(address asset, uint a, uint m) internal {\n        if (mapAsset_ExchangeData[asset].listed = false) {                                                                                     \n            mapAsset_ExchangeData[asset].balanceMAI = m;\n            mapAsset_ExchangeData[asset].balanceAsset = a;\n            exchanges.push(asset);  // Add new exchange\n            mapAsset_ExchangeData[asset].listed = true;\n        } else {\n            mapAsset_ExchangeData[asset].balanceMAI += m;\n            mapAsset_ExchangeData[asset].balanceAsset += a;\n        }\n        if (mapAsset_ExchangeData[asset].isActivePoolStaker[msg.sender] == false){\n            mapAsset_ExchangeData[asset].stakers.push(msg.sender);\n            mapAddress_MemberData[msg.sender].exchanges.push(asset);\n            members.push(msg.sender);\n            mapAsset_ExchangeData[asset].isActivePoolStaker[msg.sender] = true;\n        }\n        uint M = mapAsset_ExchangeData[asset].balanceMAI;\n        uint A = mapAsset_ExchangeData[asset].balanceAsset;\n        uint units = calcStakeUnits(a, A, m, M);\n        mapAsset_ExchangeData[asset].poolUnits += units;\n        mapAsset_ExchangeData[asset].stakerUnits[msg.sender] += units;\n        emit AddLiquidity(asset, msg.sender, m, a, units);\n    }\n\n    function removeLiquidityPool(address asset, uint bp) public returns (bool success) {\n        uint _outputMAI; uint _outputAsset;\n        (_outputMAI, _outputAsset) = _removeLiquidity(asset, bp);\n        if(asset == address(0)){\n            msg.sender.transfer(_outputAsset);\n        } else {\n            ERC20(asset).transfer(msg.sender, _outputAsset);\n        }\n\n        require (_transfer(address(this), msg.sender, _outputMAI));\n        return true;\n    }\n\n    function _removeLiquidity(address _asset, uint _bp) internal returns (uint _outputMAI, uint _outputAsset) {\n        require(mapAsset_ExchangeData[_asset].stakerUnits[msg.sender] > 0);\n        require(_bp <= 10000); require(_bp > 0);\n        uint _basisPoints = 10000;\n        uint _stakerUnits = mapAsset_ExchangeData[_asset].stakerUnits[msg.sender];\n        uint _units = (_stakerUnits * _bp)/_basisPoints;\n        uint _total = mapAsset_ExchangeData[_asset].poolUnits;\n        uint _balanceMAI = mapAsset_ExchangeData[_asset].balanceMAI;\n        uint _balanceAsset = mapAsset_ExchangeData[_asset].balanceAsset;\n        _outputMAI = (_balanceMAI.mul(_units)).div(_total);\n        _outputAsset = (_balanceAsset.mul(_units)).div(_total);\n        mapAsset_ExchangeData[_asset].stakerUnits[msg.sender] -= _units;\n        mapAsset_ExchangeData[_asset].poolUnits -= _units;\n        mapAsset_ExchangeData[_asset].balanceMAI -= _outputMAI;\n        mapAsset_ExchangeData[_asset].balanceAsset -= _outputAsset;\n        emit RemoveLiquidity(_asset, msg.sender, _outputMAI, _outputAsset, _units);\n        return(_outputMAI, _outputAsset);\n    }\n\n    function swapTokenToToken(address assetFrom, address assetTo, uint inputAmount) public payable returns (bool success) {\n        require((inputAmount > 0), \"Must get Asset\");\n        uint maiAmount = 0; uint outputAmount = 0;\n        if(assetFrom == address(0)){\n            require ((msg.value == inputAmount), 'must get ETH');\n        } else if (assetFrom == address(this)){\n            _transfer(msg.sender, address(this), inputAmount); \n        } else {\n            ERC20(assetFrom).transferFrom(msg.sender, address(this), inputAmount);\n        }\n        (maiAmount, outputAmount) = _swapTokenToToken(assetFrom, assetTo, inputAmount);\n        emit Swapped(assetFrom, assetTo, inputAmount, maiAmount, outputAmount, msg.sender);\n        _handleTransferOut(assetTo, maiAmount, outputAmount,  msg.sender);\n        _checkAnchor(assetFrom, assetTo);\n        return true;\n    }\n\n    function _swapTokenToToken(address _assetFrom, address _assetTo, uint _amount) internal returns(uint _m, uint _y){ \n        if(_assetFrom == address(this)){\n            _m=0;\n            _y = _swapMaiToAsset(_assetTo, _amount);  \n        }\n        if(_assetTo == address(this)){\n            _m= _swapAssetToMai(_assetFrom, _amount);\n            _y = 0;\n        }\n        if(_assetFrom != address(this) && _assetTo != address(this)){\n            _m = _swapAssetToMai(_assetFrom, _amount);\n            _y = _swapMaiToAsset(_assetTo, _m);\n        }   \n        return (_m, _y);\n    }\n\n    function _swapAssetToMai(address _assetFrom, uint _x) internal returns (uint _y){\n        uint _X = mapAsset_ExchangeData[_assetFrom].balanceAsset;\n        uint _Y = mapAsset_ExchangeData[_assetFrom].balanceMAI;\n        _y = calcCLPSwap(_x, _X, _Y);\n        mapAsset_ExchangeData[_assetFrom].balanceAsset += _x;\n        mapAsset_ExchangeData[_assetFrom].balanceMAI -= _y;\n        return _y;\n    }\n\n    function _swapMaiToAsset(address _assetTo, uint _x) internal returns (uint _y){\n        uint _X = mapAsset_ExchangeData[_assetTo].balanceMAI;\n        uint _Y = mapAsset_ExchangeData[_assetTo].balanceAsset;\n        if(mapAsset_ExchangeData[_assetTo].isAnchor){\n         _x = _adjustAmountIfAnchor(_assetTo, _x);\n        }\n         _y = calcCLPSwap(_x, _X, _Y);\n        mapAsset_ExchangeData[_assetTo].balanceMAI += _x;\n        mapAsset_ExchangeData[_assetTo].balanceAsset -= _y;\n        return _y;\n    }\n\n    //======================================================================\n    //Anchors\n    function addAnchor(address asset, uint amountAsset, uint amountMAI) public payable returns (bool success){\n        require((arrayAnchor.length < 5), \"must only have 5 anchors\");\n        if(!mapAsset_ExchangeData[asset].isAnchor){\n            _transfer(msg.sender, address(this), amountMAI);\n       // require(MAI.transferFrom(msg.sender, address(this), amountMAI), 'must collect mai');\n        ERC20(asset).transferFrom(msg.sender, address(this), amountAsset);\n        mapAsset_ExchangeData[asset].listed = true;\n        mapAsset_ExchangeData[asset].isAnchor = true;\n        _addLiquidity(asset, amountAsset, amountMAI);\n        arrayAnchor.push(asset);\n        exchanges.push(asset);\n        }\n        return true;\n    }\n    // function removeAnchor(address asset) public returns (bool success){\n    //     require((mapAsset_ExchangeData[asset].isAnchor = true), \"must be an anchor\");\n    //     uint maxAnchorSlip = 10**17;\n    //     uint assetValue = calcValueInAsset(asset);\n    //     uint numerator = assetValue.sub(medianMAIValue);\n    //     uint denominator =(assetValue.add(medianMAIValue)).div(2);\n    //     uint delta = ((_1.mul(numerator)).div(denominator));\n    //     require((delta > maxAnchorSlip), \"percentage difference > anchor limit percentage \");\n    //     for (uint i=0; i < arrayAnchor.length; i++) {\n    //          if (arrayAnchor[i] == asset){\n    //              arrayAnchor[i] = arrayAnchor[arrayAnchor.length - 1];\n    //              arrayAnchor.pop();\n    //             }\n    //     }\n    //     //_nukeAnchor(asset);  \n    //     emit AnchorRemoved(asset, delta, assetValue, msg.sender);\n                \n    //     return true;\n    // }\n   \n    // function _nukeAnchor(address _asset) internal returns (bool success){\n    //      uint _outputMAI; uint _outputAsset; uint _bp = 10000;\n    //     for(uint i = 0; i < mapAsset_ExchangeData[_asset].stakers[].length; i++){\n    //     (_outputMAI, _outputAsset) = _removeLiquidity(_asset, _bp);\n    //     ERC20(_asset).transfer(mapAsset_ExchangeData[_asset].stakers[i], _outputAsset);\n    //     require (_transfer(address(this), mapAsset_ExchangeData[_asset].stakers[i], _outputMAI));\n    //     }\n    //     mapAsset_ExchangeData[asset].isAnchor = false;\n    // }\n\n    function _checkAnchor(address _assetFrom, address _assetTo) internal {\n        address anchor = address(0);\n        if(mapAsset_ExchangeData[_assetFrom].isAnchor){\n            anchor = _assetFrom;\n        } else if (mapAsset_ExchangeData[_assetTo].isAnchor) {\n            anchor = _assetTo;\n        }\n        if(anchor != address(0)){\n            updatePrice();\n        }\n    }\n\n    function updatePrice() public {\n        uint[5] memory arrayPrices;\n        for(uint i = 0; i < 5; i++){\n            arrayPrices[i] = (calcValueInAsset(arrayAnchor[i]));\n        }\n        uint[5] memory sortedPriceFeed = _sortArray(arrayPrices);\n        medianMAIValue = sortedPriceFeed[2];\n    }\n\n    function _sortArray(uint[5] memory array) internal pure returns (uint[5] memory) {\n        uint l = array.length;\n        for(uint i = 0; i < l; i++) {\n            for(uint j = i+1; j < l ;j++) {\n                if(array[i] > array[j]) {\n                    uint temp = array[i];\n                    array[i] = array[j];\n                    array[j] = temp;\n                }\n            }\n        }\n        return array;\n    }\n\n    function _adjustAmountIfAnchor(address _asset, uint _amount) internal returns (uint _x){\n        uint maiValueInAsset = calcValueInAsset(_asset);\n        uint delta;\n        if(maiValueInAsset < medianMAIValue){\n            delta = (medianMAIValue.sub(maiValueInAsset)).div(incentiveFactor);\n            uint burn = (_amount.mul(delta)).div(medianMAIValue);\n             _burn(burn);\n             _x = _amount.sub(burn);\n        }\n        if (maiValueInAsset > medianMAIValue){\n            delta = (maiValueInAsset.sub(medianMAIValue)).div(incentiveFactor);\n            uint mint = (_amount.mul(delta)).div(medianMAIValue);\n             _mint(mint);\n             _x = _amount.add(mint);\n        }    \n        return _x;\n    }\n    function _handleTransferOut(address _assetTo, uint maiAmount, uint _amountAsset, address payable _recipient) internal {\n        if (_assetTo == address(0)) {\n            _recipient.transfer(_amountAsset);\n        } else if (_assetTo == address(this)) {\n            _transfer(address(this), _recipient, maiAmount);\n        } else {\n            ERC20(_assetTo).transfer(_recipient, _amountAsset);\n        }\n    }\n\n    //==================================================================================//\n    // Pricing functions\n\n   function calcValueInMAI(address asset) public view returns (uint price){\n       uint balAsset = mapAsset_ExchangeData[asset].balanceAsset;\n       uint balMAI = mapAsset_ExchangeData[asset].balanceMAI;\n       return (_1.mul(balMAI)).div(balAsset);\n   }\n\n    function calcValueInAsset(address asset) public view returns (uint price){\n       uint balAsset = mapAsset_ExchangeData[asset].balanceAsset;\n       uint balMAI = mapAsset_ExchangeData[asset].balanceMAI;\n       return (_1.mul(balAsset)).div(balMAI);\n   }\n\n   function calcEtherPriceInUSD(uint amount) public view returns (uint amountBought){\n       uint etherPriceInMAI = calcValueInMAI(address(0));\n    //    uint maiPriceInUSD = calcValueInAsset(exchangeUSD);\n       uint ethPriceInUSD = medianMAIValue.mul(etherPriceInMAI).div(_1);//\n       return (amount.mul(ethPriceInUSD)).div(_1);\n   }\n\n   function calcEtherPPinMAI(uint amount) public view returns (uint amountBought){\n        uint etherBal = mapAsset_ExchangeData[address(0)].balanceAsset;\n        uint balMAI = mapAsset_ExchangeData[address(0)].balanceMAI;\n        uint outputMAI = calcCLPSwap(amount, etherBal, balMAI);\n        return outputMAI;\n   }\n\n   function checkLiquidationPoint(uint CDP) public view returns (bool canLiquidate){\n        uint collateral = mapCDP_Data[CDP].collateral;\n        uint debt = mapCDP_Data[CDP].debt;\n        uint etherBal = mapAsset_ExchangeData[address(0)].balanceAsset;\n        uint balMAI = mapAsset_ExchangeData[address(0)].balanceMAI;\n        uint outputMAI = calcCLPLiquidation(collateral, etherBal, balMAI);\n        if(outputMAI < debt) {\n            canLiquidate = true;\n        } else {\n            canLiquidate = false;\n        }\n        return canLiquidate;\n   }\n\n   //##############################################\n   //ClP functions\n\n    function calcCLPSwap(uint x, uint X, uint Y) public pure returns (uint y){\n        // y = (x * Y * X)/(x + X)^2\n        uint numerator = x.mul(Y.mul(X));\n        uint denominator = (x.add(X)).mul(x.add(X));\n        y = numerator.div(denominator);\n        return y;\n    }\n\n    function calcCLPFee(uint x, uint X, uint Y) public pure returns (uint y){\n        // y = (x * Y * x) / (x + X)^2\n        uint numerator = x.mul(Y.mul(x));\n        uint denominator = (x.add(X)).mul(x.add(X));\n        y = numerator.div(denominator);\n        return y;\n    }\n\n    function calcCLPLiquidation(uint x, uint X, uint Y) public pure returns (uint y){\n        // y = (x * Y * (X - x))/(x + X)^2\n        uint numerator = (x.mul(Y.mul(X.sub(x))));\n        uint denominator = (x.add(X)).mul(x.add(X));\n        y = numerator.div(denominator);\n        return y;\n    }\n\n    function calcStakeUnits(uint a, uint A, uint m, uint M) public pure returns (uint units){\n        // ((M + A) * (m * A + M * a))/(4 * M * A)\n        uint numerator1 = M.add(A);\n        uint numerator2 = m.mul(A);\n        uint numerator3 = M.mul(a);\n        uint numerator = numerator1.mul((numerator2.add(numerator3)));\n        uint denominator = 4 * (M.mul(A));\n        units = numerator.div(denominator);\n        return units;\n    }\n}\n",
  "sourcePath": "/Users/guzziplus/ThesisPro/mai-contracts/contracts/Mai.sol",
  "compiler": {
    "name": "solc",
    "version": "0.6.4+commit.1dca32f3.Emscripten.clang"
  },
  "schemaVersion": "3.2.0",
  "updatedAt": "2020-07-16T04:57:14.157Z",
  "networkType": "ethereum",
  "devdoc": {
    "methods": {}
  },
  "userdoc": {
    "methods": {}
  }
}